
First Steps With ATtiny44a.elf:     file format elf32-avr

Sections:
Idx Name          Size      VMA       LMA       File off  Algn
  0 .text         00000058  00000000  00000000  00000054  2**1
                  CONTENTS, ALLOC, LOAD, READONLY, CODE
  1 .comment      00000030  00000000  00000000  000000ac  2**0
                  CONTENTS, READONLY
  2 .debug_aranges 00000020  00000000  00000000  000000dc  2**0
                  CONTENTS, READONLY, DEBUGGING
  3 .debug_info   0000010a  00000000  00000000  000000fc  2**0
                  CONTENTS, READONLY, DEBUGGING
  4 .debug_abbrev 000000c2  00000000  00000000  00000206  2**0
                  CONTENTS, READONLY, DEBUGGING
  5 .debug_line   0000013b  00000000  00000000  000002c8  2**0
                  CONTENTS, READONLY, DEBUGGING
  6 .debug_frame  00000024  00000000  00000000  00000404  2**2
                  CONTENTS, READONLY, DEBUGGING
  7 .debug_str    000001a8  00000000  00000000  00000428  2**0
                  CONTENTS, READONLY, DEBUGGING
  8 .debug_ranges 00000010  00000000  00000000  000005d0  2**0
                  CONTENTS, READONLY, DEBUGGING

Disassembly of section .text:

00000000 <__vectors>:
   0:	10 c0       	rjmp	.+32     	; 0x22 <__ctors_end>
   2:	17 c0       	rjmp	.+46     	; 0x32 <__bad_interrupt>
   4:	16 c0       	rjmp	.+44     	; 0x32 <__bad_interrupt>
   6:	15 c0       	rjmp	.+42     	; 0x32 <__bad_interrupt>
   8:	14 c0       	rjmp	.+40     	; 0x32 <__bad_interrupt>
   a:	13 c0       	rjmp	.+38     	; 0x32 <__bad_interrupt>
   c:	12 c0       	rjmp	.+36     	; 0x32 <__bad_interrupt>
   e:	11 c0       	rjmp	.+34     	; 0x32 <__bad_interrupt>
  10:	10 c0       	rjmp	.+32     	; 0x32 <__bad_interrupt>
  12:	0f c0       	rjmp	.+30     	; 0x32 <__bad_interrupt>
  14:	0e c0       	rjmp	.+28     	; 0x32 <__bad_interrupt>
  16:	0d c0       	rjmp	.+26     	; 0x32 <__bad_interrupt>
  18:	0c c0       	rjmp	.+24     	; 0x32 <__bad_interrupt>
  1a:	0b c0       	rjmp	.+22     	; 0x32 <__bad_interrupt>
  1c:	0a c0       	rjmp	.+20     	; 0x32 <__bad_interrupt>
  1e:	09 c0       	rjmp	.+18     	; 0x32 <__bad_interrupt>
  20:	08 c0       	rjmp	.+16     	; 0x32 <__bad_interrupt>

00000022 <__ctors_end>:
  22:	11 24       	eor	r1, r1
  24:	1f be       	out	0x3f, r1	; 63
  26:	cf e5       	ldi	r28, 0x5F	; 95
  28:	d1 e0       	ldi	r29, 0x01	; 1
  2a:	de bf       	out	0x3e, r29	; 62
  2c:	cd bf       	out	0x3d, r28	; 61
  2e:	02 d0       	rcall	.+4      	; 0x34 <main>
  30:	11 c0       	rjmp	.+34     	; 0x54 <_exit>

00000032 <__bad_interrupt>:
  32:	e6 cf       	rjmp	.-52     	; 0x0 <__vectors>

00000034 <main>:
#define F_CPU 20000000
#include <util/delay.h>

int main(void)
{
	DDRA |= (1<<DDA0) | (1<<DDA1) | (1<<DDA2) | (1<<DDA3) | (1<<DDA4) | (1<<DDA5) | (1<<DDA6) | (1<<DDA7);
  34:	8a b3       	in	r24, 0x1a	; 26
  36:	8f ef       	ldi	r24, 0xFF	; 255
  38:	8a bb       	out	0x1a, r24	; 26
	PORTB = 0;
  3a:	18 ba       	out	0x18, r1	; 24
		 1     0         X        Output   No     Output Low (Sink)
		 1     1         X        Output   No     Output High (Source)
	*/
    while(1)
    {
		PINA |= (1 << PINA7)|(1 << PINA6)|(1 << PINA5)|(1 << PINA4)|(1 << PINA3)|(1 << PINA2)|(1 << PINA1)|(1 << PINA0);
  3c:	99 b3       	in	r25, 0x19	; 25
  3e:	89 bb       	out	0x19, r24	; 25
	#else
		//round up by default
		__ticks_dc = (uint32_t)(ceil(fabs(__tmp)));
	#endif

	__builtin_avr_delay_cycles(__ticks_dc);
  40:	2f ef       	ldi	r18, 0xFF	; 255
  42:	38 e0       	ldi	r19, 0x08	; 8
  44:	9d e3       	ldi	r25, 0x3D	; 61
  46:	21 50       	subi	r18, 0x01	; 1
  48:	30 40       	sbci	r19, 0x00	; 0
  4a:	90 40       	sbci	r25, 0x00	; 0
  4c:	e1 f7       	brne	.-8      	; 0x46 <__SREG__+0x7>
  4e:	00 c0       	rjmp	.+0      	; 0x50 <__SREG__+0x11>
  50:	00 00       	nop
  52:	f4 cf       	rjmp	.-24     	; 0x3c <main+0x8>

00000054 <_exit>:
  54:	f8 94       	cli

00000056 <__stop_program>:
  56:	ff cf       	rjmp	.-2      	; 0x56 <__stop_program>
